:020000040020DA
:10000000DC3900208D0220007F9520007D952000A6
:100010007D9520007D9520007D952000000000004A
:100020000000000000000000000000007D9520009E
:100030007D952000000000007D9520003F9B200062
:10004000619B2000679B20006D9B2000739B20001C
:1000500000000000459B20004B9B20007D95200068
:100060007D9520000000000000000000000000005E
:1000700000000000000000007D952000000000004E
:1000800000000000000000007D9520007D9520000C
:100090007D9520007D9520007D9520007D95200098
:1000A0007D9520007D9520007D9520007D95200088
:1000B0007D9520007D9520007D9520007D95200078
:1000C0007D9520007D9520007D9520007D95200068
:1000D0007D952000000000000000000000000000EE
:1000E0000000000000000000000000000000000010
:1000F0000000000000000000052C2000152C20004E
:1001000000000000000000000000000000000000EF
:1001100000000000000000000000000000000000DF
:1001200000000000000000000000000000000000CF
:1001300000000000000000000000000000000000BF
:1001400000000000000000000000000000000000AF
:10015000000000000000000000000000000000009F
:10016000000000000000000000000000000000008F
:10017000000000000000000000000000000000007F
:10018000000000000000000000000000000000006F
:10019000000000000000000000000000000000005F
:1001A000000000000000000000000000000000004F
:1001B000000000000000000000000000000000003F
:1001C000000000000000000000000000000000002F
:1001D000000000000000000000000000000000001F
:1001E000000000000000000000000000000000000F
:1001F00000000000000000000000000000000000FF
:1002000000000000000000000000000000000000EE
:1002100000000000000000000000000000000000DE
:1002200000000000000000000000000000000000CE
:1002300000000000000000000000000000000000BE
:1002400000000000000000000000000000000000AE
:10025000000000000000000000000000000000009E
:10026000000000000000000000000000000000008E
:100270007D952000F92A2000112B20006D242000FC
:100280007D952000A11F20007D95200008B5094B19
:10029000FF221A600848094A4824E3690849121AEB
:1002A00098470848084AA3690021121A984701F0A4
:1002B0006FFBFEE7B4200D40400000203E07002009
:1002C00028B7200040070020DB31002010B503884C
:1002D0000446682B0AD0A12B21D0D3B9174A852117
:1002E00010681A4603F082FB682310E0852914D1B8
:1002F00001F0E6FA1248134901F0FAFA12481349DC
:1003000001F0F6FA1248134901F0F2FAA123238012
:1003100003E000230380032010BD012010BD0E4B1D
:100320001B788B42F2D10D4B9A42EFD10C4B1B6ADA
:1003300098470C4B1B6A9847E8E700BF100E002057
:1003400028050020E8B02000BC040020F3B0200005
:10035000E0040020FDB02000BE310020F0AD200000
:10036000040500207804002008B5094A1378012B01
:1003700003D9BDE8084000F0FBBF01330549137005
:1003800001F004F8BDE808400348044908F086BFBE
:100390003E260020500700208007002024B12000C6
:1003A00070B5184EA8B033784BB3174CA08A2146CD
:1003B000228A00F0B9FD054608B3144B214693F894
:1003C0006420684609F057FB04F1300008F0C4FFD0
:1003D00004F130010246684609F03EFBA38D00227D
:1003E000A16A684609F0EBFA05F13601684600F0AB
:1003F000C5F8A886284600F0CFFD0023337028B04A
:1004000070BD00BF3E26002050070020E4AC200055
:10041000034A0448136801331360034BDB6D18472C
:10042000D0070020BC040020E4AC20002DE9F041FE
:100430000D4616461F460E4C0846E369D4F8B41024
:1004400098470C4B28461B6A9968236BC909984743
:10045000094B39463046094A1B68E46C09F010FC28
:100460003146024623462846BDE8F041184700BF02
:10047000E4AC2000BC040020D007002045B12000DF
:10048000034A0448136801331360034BDB6D1847BC
:10049000D407002004050020E4AC20002DE9F04141
:1004A00015461F460A4C0E46E3690846D4F8B410B8
:1004B0009847084B39462846074A1B68E46C09F000
:1004C000DFFB2946024623463046BDE8F041184787
:1004D000E4AC2000D40700204FB1200073B5164CC7
:1004E0000C23154600228DE80C000E46636D13495F
:1004F0006A46984750B1009808F0C2FC20EAE070C4
:100500003028C8BF30230190C8BF0193019A284604
:100510000B4908F035FDE369D4F8B410304698472C
:10052000636B01A9304601229847E36C30462946A7
:10053000019A984702B070BDE4AC2000A7B120003A
:10054000ABB1200010B5044600200146024606F07B
:1005500061F8044B0482186003F02CFB024B1880F6
:1005600010BD00BFD80700208C200020024B188847
:10057000013080B2188070478C200020F7B5044607
:1005800001232160037100230B700E46016800797E
:100590000A7842EA80120A702068627901781201B2
:1005A00002F030020A430270A27A206802F00F01C2
:1005B00002780A4302702268A17951702289216869
:1005C000120A8A7022682189D170A279002A00F06B
:1005D0003F81224652F80A5B0435A17A8B4205D24C
:1005E00012F8011F013305F8011BF6E7E37C03F065
:1005F000020303F0FF015BB194F865300021009322
:100600002A46012004F1660309F07DF80121054422
:10061000E37C1A0708D5E36B2A4600930320236C7A
:1006200009F071F803210544E37CDB060AD594F850
:1006300020302A460093042004F1210309F063F8D6
:1006400004210544E37C9F0606D52A4605200023A5
:1006500009F029F805210544E37C580606D52A4609
:100660000620236E09F01FF80621054494F9133083
:10067000002B07DA2A460720B4F84C3009F013F8AB
:1006800007210544237DDA070AD5636C2A460093C7
:100690002F2301930820A36C09F045F80821054495
:1006A000237D1B070AD5A36D2A4600932F230193B0
:1006B0000B20E36D09F037F80B210544237DDF069D
:1006C00006D52A460C20E37E08F0EDFF0C210544F8
:1006D000237D580606D52A460E20E36908F0E3FF7D
:1006E0000E21054494F91430002B0CDAD4F8903024
:1006F0002A460093262301930F20D4F8943009F062
:1007000012F80F210544637D9A0707D52A46112068
:1007100094F8643008F0C7FF11210544637DDB06BF
:100720000AD5236D2A460093262301931420636D76
:1007300008F0F9FF1421054494F91530002B1CDA58
:10074000276F94F874303F010BB147F00807B4F8F5
:10075000763000201B09421C5B0892B201D0104683
:10076000F9E7002A18BF024602F00F0317202A46B5
:100770003B4308F098FF17210544A37D1F071CD5B4
:10078000E76F94F880303F010BB147F00807B4F8E9
:10079000823000201B09421C5B0892B201D0104637
:1007A000F9E7002A18BF024602F00F031B202A4671
:1007B0003B4308F078FF1B210544A37DD80607D5ED
:1007C0002A461C20D4F8883008F06DFF1C2105440F
:1007D000E37D1A0708D5E36A2A4600932320236B9A
:1007E00008F091FF2321054494F91730002B08DA13
:1007F000636B2A4600932720A36B08F084FF272110
:100800000544A37EDB0606D52A463C20D4F88C306E
:1008100008F049FF05442368EB1A3E2B11DCB4F8BD
:100820009A3013B1FF2305F8013B2846D4F89C10F9
:10083000B4F89A2008F01AFCB4F89A00AD1B2844CA
:1008400007E0054A054B0025256028461A6000E0B0
:10085000042003B0F0BD00BF14B220004C050020FE
:100860002DE9F0418C46104904460F680D46BE46FE
:1008700000F11008764620686168083403C64445D4
:10088000B646F7D11146A7F812C01A46384606F008
:1008900039F82C6800212046102208F04BFC002378
:1008A0006382BDE8F08100BFD80700202DE9FF4139
:1008B0000F46044600219046A02208F03BFC27602A
:1008C0003B789B0923713A78C2F3011262713D783B
:1008D00005F00F05082DA8BF0825A5727A78012B11
:1008E000A271B978FA7842EA0122228104D09C4AA6
:1008F0009C4B80201A6030E13E1D31462A4604F1AF
:100900000B0008F03DFB2E4404F1130000250021EC
:10091000082208F00FFC0295039507EB08039E429E
:1009200080F01A8116F8013B03F0F002F02A12D190
:10093000BF1BB8441FFA88F8B8F1300F8ABF3023C4
:10094000A4F89A80A4F89A30B4F89A300020C4F839
:100950009C60F05401E11A0903F00F030393029223
:1009600002AB1A680D2A03D116F8012B0D3208E0EC
:100970000E2A07D1727816F8021B02F20D1202EB52
:1009800001221A6003AA934201D01346E9E7029BB1
:1009900001221D4404EBD50105F0070302FA03F020
:1009A000CB7C0E2D43EA0003CB746CD029D8062DE6
:1009B00000F0AC8017D8032D00F084800BD895424E
:1009C00040F0C080039A04F16600082A28BF08227C
:1009D00084F865206DE0042D5BD0052D40F0B280D9
:1009E00084F89820B5E0082D7ED06FD30B2D74D0FD
:1009F0000C2D40F0A7803046039908F0C6FDE07644
:100A0000A7E01B2D00F0888026D8112D4AD009D8E8
:100A10000F2D40F097802623009304F1940004F1F9
:100A2000900167E0142D6AD0172D40F08B8030467E
:100A3000039908F0AAFDC0F3C00300F0070284F890
:100A4000743010239340A4F8763020F00F039340C5
:100A50000009A36720677CE0232D2ED008D81C2D29
:100A600070D13046039908F090FDC4F8880070E01A
:100A7000272D22D03C2D65D13046039908F085FD05
:100A8000C4F88C0065E03046039908F07EFDE06113
:100A90005FE0039A04F12100082A28BF082284F8A5
:100AA000202006E03046039908F06FFD84F86400CA
:100AB0004FE0314608F064FA4BE02B4A294BA52061
:100AC0001A604AE0039B2664E36342E030460399E0
:100AD00008F05BFDA4F84C003BE02F23009304F1E9
:100AE0005C0004F1580105E02F23009304F1480055
:100AF00004F144013246039B08F052FD29E026230D
:100B0000009304F1540004F15001F3E730460399D7
:100B100008F03BFD20661CE03046039908F035FDE7
:100B2000C0F3C00300F0070284F880301023934024
:100B3000A4F8823020F00F0393400009C4F88430F9
:100B4000E06706E0EB0704D5084A064B82201A60EE
:100B500003E0039B1E44E0E6002004B0BDE8F08102
:100B600043B220004C0500205AB2200081B2200080
:100B7000014B1860704700BF7C0800202DE9F04F42
:100B8000038887B0814633B1B3F5AD7F13D000231E
:100B900003800320ACE1A848A84900F0A9FE00F0BA
:100BA000B9F943F21630FFF7CDFC4FF4AD73A9F855
:100BB000003001209CE1A24B1B788B4240F09281D7
:100BC000A04D00232B70A04B1B789807EDD59F4EAE
:100BD0009F4BA04C316820461A88FFF767FEB0464D
:100BE000074628709C4E002840F01781A379013BEE
:100BF000032B00F2DC80994B994A1B7802F1080123
:100C000028332089D25A00F08FF93060002800F094
:100C1000C8802023ADF80A306379039704970597BD
:100C200023B9904802214522238905E0FFF79EFC65
:100C300003468C480121452208F0B0FDA27A1AB182
:100C40008848894908F0DFFD04AB0093814803A977
:100C500000220DF10A0308F099FE40B1BDF80A30F8
:100C6000202B28BF2023ADF80A30049B05937F4B2F
:100C7000D3F800C0BCF1000F00F08F803268794FCC
:100C8000DFF8D0B105A90091BDF80A3058463946C1
:100C90007432E047BA4600286ED02B78002B6BD117
:100CA0009BF8163019070DD597F90630002B09DB94
:100CB000BB7D1A0706D4634BA1221A706C4A6D4B98
:100CC0001A6059E094F91530059A002B41DA049B1B
:100CD0009A4223D1BAF89A10624F8A4205D38223EE
:100CE000BB71384664490F2244E0BDF80A308A1AC5
:100CF0009A4294BF002201220399384608F05FFE11
:100D00000499B7F89A30BDF80A205B1AD7F89CE02E
:100D10009A423846714428BF1A462BE001320399A3
:100D2000BDF80A3006D1BAF89A209A4294BF002240
:100D3000012200E001224B4F384608F040FEBDF88A
:100D40000A20BAF89A30934216D93846D7F89C1040
:100D500010E08AB1013218BF01220021414820234E
:100D600008F02DFEBAF89A203E481F2ADAF89C10A7
:100D700088BF202208F070FE2B78002B4DD13768F9
:100D8000384807F13601FFF7F9FB80B2B886002832
:100D900043D12C4BC1221A703FE0A1232B70374A5C
:100DA00002E0A323364A2B70324B1A6035E06368A9
:100DB00023F07F4323F0FF0313B9C3232B700CE010
:100DC0006379032B09D1254B254A1B7802F10800D2
:100DD0002833D15A228900F00BFA208900F028F933
:100DE000306040B1C76AD0F830A000F0BFF817B14A
:100DF00050461849B847002333606379154A012BE0
:100E00000BD8D37C5B0608D5144B15491B7801F130
:100E100008002833C95A00F037FC2B78094F306896
:100E20002BB900283FF4C1AE00F0B6F8BDE6C22BE6
:100E300028D100F09BF8B8E6780500209DB220008C
:100E4000D13100203F260020942D0020A02D00202D
:100E500070280020DC070020800800205F27002089
:100E60008028002084080020E70700207C0800205C
:100E7000AEB220004C050020BEB22000CEB2200051
:100E8000DFB2200000F072F83B78C32B03D10023BF
:100E90003B70032104E0BF2B84BFA0233B700221E1
:100EA0002A782389144808F079FC144B144D1C68E7
:100EB000204608F051FA214602460F4808F0CCFDC2
:100EC000104BD8F800401B78214628330A485E5B57
:100ED000FFF754FB314683B2224605F10800FFF7C5
:100EE000BFFC62E688297FF460AE00F0AFF85CE6F4
:100EF00007B0BDE8F08F00BFDC0700204C050020E4
:100F0000802800205F2700200148002102F09ABDC0
:100F100050050020024B1A68024B1A60704700BF50
:100F2000100E002028090020F8B507460D480D4690
:100F3000164608F05BFF044690B12946002303766D
:100F4000878000F11A0305F1100251F8040B914259
:100F500043F8040BF9D166850348214608F014FFD5
:100F60002046F8BD600500202409002010B5044685
:100F700060B1083002F02AFC2146054808F0F0FE76
:100F80002146BDE81040034808F044BF10BD00BF33
:100F900024090020600500202DE9F041044600F1FD
:100FA0001A073846618D04F13602A38EFFF758FC0C
:100FB00094F83650C5F3011575BB237E032B1AD860
:100FC00053B902F0F7FDC023B0FBF3F202FB1300AC
:100FD00000F28110E06002E0E3685B00E360124D24
:100FE000124B2E681B6804F108002B6008F072FE9B
:100FF0002E60BDE8F081E66A3846618DD4F8308015
:1010000000F04AF82046FFF7B1FF56B140462946A6
:101010003346BDE8F04118472046BDE8F041FFF7F0
:10102000A5BFBDE8F08100BF100E002028090020F8
:1010300010B50446044808F089FE20B18388A34215
:1010400001D00068F9E710BD2409002010B5094857
:1010500008F07CFE044664B104F1080008F043FE89
:1010600028B1237E204601332376FFF795FF2468BD
:10107000F1E710BD2409002010B5044604482146BC
:1010800008F0C8FE2146BDE81040024808F068BEDE
:101090006C0500208C0C0020F8B506460C480F4665
:1010A00008F054FE044600257CB104F108003146E6
:1010B000102207F033FF30B9238BBB4203D1204607
:1010C000FFF7DAFF01352468EEE72846F8BD00BFD8
:1010D0008C0C00202DE9F8430746134888469146BA
:1010E0001E4608F033FE04460025CCB104F108008A
:1010F0003946102207F012FF80B9238B43450DD1EA
:10110000A37EB3420AD104F11B004946324607F0E0
:1011100005FF18B92046FFF7AFFF01352468E4E763
:101120002846BDE8F88300BF8C0C00202DE9F84369
:10113000074614488946904608F008FE04460025F4
:10114000E4B14FB104F108003946102207F0E6FE81
:1011500090B9238B4B450FD16668464508D0304681
:1011600008F0FAF841460246304607F0D7FE18B9B3
:101170002046FFF781FF01352468E1E72846BDE8F6
:10118000F88300BF8C0C00202DE9F843089E9046A0
:10119000324689461F460546FFF7C8FF124808F049
:1011A00025FE0446E0B12A46466005F1100300F131
:1011B0000806354610685168083203C59A422E4623
:1011C000F7D14146A4F81890A77604F11B003A46DF
:1011D00007F0D6FE0023A3840448214608F0D4FD7E
:1011E0002046BDE8F88300BF6C0500208C0C002071
:1011F0002DE9F04106460F480F46904608F0A6FD3F
:101200000446002594B104F108003146102207F08D
:1012100085FE48B9238BBB4206D1A38C434503D13D
:101220002046FFF729FF01352468EBE72846BDE893
:10123000F08100BF8C0C0020F0B5ABB0012145223D
:101240000023064602A808F0A9FA234808F07EFD0C
:101250000446002C3DD0626873689A4237D1FFF78C
:1012600085F904F10801228BFFF75EFE054670B395
:10127000A16A142391FBF3F203FB12130BB98DF84F
:101280000D30AB880020A384AB883769ADF81030EF
:101290000090302302A905F17402B8479DF90E3081
:1012A000002B05DBA16A02A84B1CA36208F067FBB8
:1012B00004F11B01A27E02A808F0A5FA02A805F11C
:1012C0003601FFF75BF9A8862846FFF765FE24681C
:1012D000BFE72BB0F0BD00BF8C0C002037B58B7979
:1012E0000C46012B15463BD192F90630002B37DB1B
:1012F000CB7C5B0634D50B6E0BBB1A4B1A4A1B78A2
:1013000040682833995A0090A37A02F1080004F14A
:101310000B02FFF739FF40B1816A4B1C83622846FC
:1013200003B0BDE8304008F02ABB28460F49A3238C
:101330001022AB7103B0BDE8304008F08DBB012B2B
:101340000ED1084B084A1B7802F108002833D15A05
:10135000A37A04F10B0203B0BDE83040FFF7BABE38
:1013600003B030BD5F2700208028002003B3200099
:10137000034BA3221A70034A034B1A60704700BF45
:101380003F26002014B320004C0500202DE9F04337
:101390000446A9B000890D46FFF74AFE064600281C
:1013A0004CD06279C2B968460221238908F0F6F967
:1013B000254BDFF8A0801B786846283333F8089067
:1013C000224B1F683946FFF7D9F8494683B23A469F
:1013D00008F10800FFF744FA2F4606F11A0306F158
:1013E0002A0E3A4618685968083303C273451746EF
:1013F000F7D1738D2B826379003318BF0123AB744F
:10140000FFF7B4F8A88204F10B0105F11700A27AE6
:1014100007F0B6FDA37AAB75E36F2B62B4F88230A8
:10142000AB84236FAB62B4F876301BB1202B28BF9E
:10143000202300E02023AB85C22200E0A022044B41
:101440001A7029B0BDE8F0835F270020A02D00208E
:101450003F260020802800202DE9F74F0C9F8B4667
:1014600090461E4600F05EFA08F070FC00248146AB
:101470002546B9F1000F7BD04DB13B689D4205D3A5
:10148000B4423EBF2C2308F80430013401353B68D8
:101490009D4205D3B4423EBF3C2308F804300134DA
:1014A0003A686B1C934205D3B4423EBF2F2308F821
:1014B00004300134D9F804C002356046CDF804C0C8
:1014C00007F04AFF3B6800EB050A9A45DDF804C0C7
:1014D0000FD9711C5B1B08EB0400091B002BACBF70
:1014E00063440CF10003334A08F0CAFB0444B442DD
:1014F0003ED23B689A4505D3B4423EBF3E2308F82E
:1015000004300134D9F80C300AF101051B7833B3EB
:101510003B689D4205D3B4423EBF3B2308F80430EC
:101520000134D9F80C300AF1020A1846019307F089
:1015300013FF3A6800EB0A059542019B0FD9CAEBED
:10154000020A711C08EB0400091BBAF1000FA8BFC6
:101550005344184A08F094FB0444B44204E0B442F3
:1015600003D93A682B1B934203D8D9F8009080E73F
:101570004CB141465846224608F06EFA584628219A
:1015800008F058F909E045B18221584608F035F9CC
:10159000584609490F2208F05FFAB9F1000F03D14C
:1015A0004FF0FF333B6002E03B681E443E6003B0F7
:1015B000BDE8F08F21B32000BEB2200038B50C4644
:1015C000054620B90E4808F0F8FA042038BD0D4849
:1015D00008F0F3FAAB79413B3E2B04D90A4808F0F6
:1015E000ECFA032038BDEB7C5B0604D4074808F016
:1015F000E4FA022038BDB4FA84F0400938BD00BFD7
:101600002AB3200036B3200045B3200059B3200090
:101610002DE9F04104460A4D0F462146094C164675
:101620002846002208F0BAF821682846FEF7A6FFEF
:10163000314683B222683846BDE8F041FFF710B961
:10164000940C0020A02D002070B505460C480E46D5
:1016500008F07CFB044684B10A4829786A7801F0D6
:10166000C3FB237FB34206D104F11D002946324655
:1016700007F054FC08B12468EDE7204670BD00BFB8
:10168000900C0020C9B32000F7B514460746224845
:101690000E4608F092FAA57A204808F08EFA0DB9A5
:1016A0001F482DE01F4808F088FA294604F10B0076
:1016B000FFF7CAFF054648B91B4808F07EFA032029
:1016C000394632462389FFF7A3FF22E063792BB91D
:1016D0000220394632462389FFF79AFFEB6AC3B1ED
:1016E00020460021FFF76AFF012806460CD120465C
:1016F00001A908F038F9019B2A6B934203D10B48EA
:1017000008F05BFA05E02B63EB6A28462146324677
:10171000984703B0F0BD00BF44B420005FB4200080
:101720006DB42000B1B42000C7B420000FB5200074
:1017300070B502880546B32A09D0C32A21D082B9E0
:101740001B4B8521186802F051F9B32307E0852966
:101750000BD1184808F0FAFA044644B9C3232B8089
:1017600003E000230380032070BD012070BDE36906
:101770002BB1A16819B104F10C0008F099FA2468A2
:10178000EBE78829EAD10B4808F0E0FA0446002C80
:10179000E4D0A36853B104F10C06304608F0A3FA74
:1017A00020B1E3699847304608F08BFA2468EEE7E9
:1017B000100E0020340D00202DE9F04F054687B0B3
:1017C00099463D4800230E469046DDF840A005931B
:1017D00008F0BCFA0446394F002C5FD0FB6805A91D
:1017E0002846039398478346606807F0B5FD834514
:1017F0000CD1D4F804B0584607F0AEFD0599024666
:10180000584607F0D7FD002846D10DE005A9039BF7
:10181000284698478346606807F09EFD83453BD97C
:10182000237AD906E5D437E03B6928469847C207B2
:1018300004D5D4F810C0BCF1000F14D1830704D52F
:10184000D4F814C0BCF1000F0DD1410704D5D4F871
:1018500018C0BCF1000F06D1020715D5D4F81CC082
:10186000BCF1000F10D04B46CDF800A02846314601
:101870004246E047237A5B0617D520463B6E294651
:1018800032469847012005E07B693046D7F88C1036
:101890009847002001240AE024689CE77B693046D1
:1018A000D7F888109847012001E001200446204025
:1018B00007B0BDE8F08F00BF380D0020E4AC200079
:1018C00010B5074C074808F03EFAA3680648984749
:1018D00063689847BDE810400448002102F0B2B8A0
:1018E000E4AC2000380D0020B91720009C05002032
:1018F00010B5044641600948214608F045FA94F9BC
:101900000830002B09DA216ACB6933B18B6823B127
:10191000BDE81040024808F037BA10BD380D00206D
:10192000340D002000487047380D002008B500F045
:1019300021F8024B00221A7008BD00BF4726002084
:10194000024A13781843107000F01CB84726002094
:10195000034A137823EA0000107000F013B800BFA8
:1019600047260020024A13785840107000F00AB849
:1019700047260020024A136843F00F0313607047A4
:1019800000B40D40014B1860704700BF3CB00D40E3
:10199000F7B500F05FFC00F003FD00F09DFC00F0E7
:1019A0005DFA01F0D5F908F0ACF900F0F1FCFFF7B1
:1019B000BDFF022008F077F801F09EFF00F036FC32
:1019C00000F0E4F9002000F045FB012000F042FBAC
:1019D0004349002000F014FC02F0DAF808F0B8F8EF
:1019E000042008F060F83F4808F0E7F83E4808F0A7
:1019F000E4F83E4801F0F8F93D4B3E4C186808F019
:101A0000DCF83D4801F0F0F93C4B0025186808F07F
:101A1000D4F83B4801F0E8F93A4B186808F0CDF8E3
:101A2000002002F0D7F801F087F83748002102F0D3
:101A300009F801F0CBFD6846082101F09BF99DF8FB
:101A400007309DF8067043EA07276B4603CB2060FA
:101A500061602E4801F0C8F9615D2D48013501F043
:101A6000C3F9072D234EF7D12A4DF1792A4801F009
:101A7000BBF9EC6A4AF6CD310220A0473946032073
:101A8000A04719210120A04769466B6B0822092055
:101A9000984706F0D1FA214A33681360736853609F
:101AA00006F02EFC1E48002101F0CCFF00F09AFC4D
:101AB00000211C4801F0C6FF08F0F9F81A4808F0A8
:101AC000ECF800F0B9FB082007F0EDFF00F0BAFBDE
:101AD00001F02AFF10F0FF0FF8D101F0D1F8F5E77F
:101AE0004D3B200085B520009FB52000B7B52000F4
:101AF00070AF2000D3310020BEB520008CAF200095
:101B0000C5B52000A8AF200008060020CCB52000F5
:101B1000EAB52000A8AE2000F0B52000782800200B
:101B2000A0060020AC050020DCAC200070B50588C4
:101B30000446772D30D07E2D3FD0002D4DD101F0C1
:101B4000D3FE294B1870294B1D601D462B68284A6F
:101B5000264E52F823204AB126480021C1549368EA
:101B600080209847336801333360EFE7224A1370CF
:101B7000772320E01F4AD256002A12DB1B4A136843
:101B800001331360194B1C4A1B6812789342F1DB36
:101B90001A4B1B68002BEBD0184A00231360134A22
:101BA000EFE7114A00201178114A52F8232001F082
:101BB0001DFF30B97E23238013E00B4B1B788B4233
:101BC0000FD10A4B0B491A688B5C03F07F038B54CF
:101BD0000A4A136801331360D0E70023038003200F
:101BE00070BD012070BD00BFBE3100203C0D002043
:101BF000BC050020BF31002048260020400D0020F9
:101C0000094B1A780023934204DA084951F823104B
:101C1000814207D106490748CA5C62F07F02CA5474
:101C200001F028BF0133EEE748260020BC05002064
:101C3000BF310020AC05002008B50948082107F095
:101C40005CFF03210422002000F0B8FB002000F01C
:101C50001FFB04480021032200F052FB012008BDB5
:101C600000900D40291D200008B50948102107F0FB
:101C700044FF04210A46022000F0A0FB022000F0ED
:101C800007FB04480221042200F03AFB012008BDB2
:101C900000B00D40291D200008B50948202107F09B
:101CA0002CFF05210422022000F088FB022000F016
:101CB000EFFA04480221052200F022FB012008BDB2
:101CC00000B00D40291D200008B50948402107F04B
:101CD00014FF06210422022000F070FB022000F015
:101CE000D7FA04480221062200F00AFB012008BDB1
:101CF00000B00D40291D200008B50948802107F0DB
:101D0000FCFE07210422022000F058FB022000F014
:101D1000BFFA04480221072200F0F2FA012008BDB0
:101D200000B00D40291D200038B5054611480C466D
:101D300007F0FBFFE8B10F48102107F0E4FF1DB9E1
:101D4000032C16D10C4810E0022D12D1042C01D125
:101D50000A480AE0052C01D1094806E0062C01D109
:101D6000084802E0072C04D10748BDE83840FFF7D7
:101D700047BF38BD440D0020F0AD200010AE20005C
:101D800020AE200000AE200030AE2000014800212F
:101D900007F0B9BF440D002010B5074CFF232360A6
:101DA0004FF4FA6000F096F800213022062000F08F
:101DB00021FB0023236010BD00920D40802870B5E8
:101DC0001ED1104E104D3368002423F08003336081
:101DD0002B68204643F080032B600C4B07211C60CE
:101DE000224600F0EBFA3368204623F040033360CC
:101DF0002B68062123F040032B60012200F0DEFA5D
:101E0000002070BD20940D4000940D4000920D40C4
:101E1000F8B500F083F80F4B0024D3E900673A4689
:101E2000B04238BF7A1C15460443C3E90045DFF8C9
:101E300028E0DEE90001821B61EB070312196B4108
:101E4000CEE9002301F0BAFC18B1BDE8F84001F07A
:101E500045BCF8BD40070020480700200F4B104A42
:101E60001A6053F8042C42F0050243F8042C53F88E
:101E7000042C42F0020243F8042C0A4A136843F08F
:101E800001031360084B00221A60042243F80C2C53
:101E9000012243F8082C0F22DA62704714E000E0B8
:101EA00047E8010008200D400C000340034BD3E934
:101EB0000023100A40EA0360704700BF400700207B
:101EC000034BD3E90023D00B40EA4340704700BFE7
:101ED00048070020054B18601C3B1A6842F00102BD
:101EE0001A601A68D207FCD4704700BF280003406C
:101EF00010B5064C236823F001032360FFF788FF29
:101F0000236843F00103236010BD00BF10E000E030
:101F1000014B1868704700BF4C0D0020074B084A62
:101F2000196804331B681268120442EA0323054A45
:101F30000B43106843EA0060704700BF40500D40FB
:101F400048500D404C500D4010B50446114B1B68D5
:101F5000DB07FBD507F000FEFFF7E0FF231A062B97
:101F6000D8BFC41D0C4B220E1A60C4F3074243F8BD
:101F7000042CC4F3072243F8082CE2B243F80C2CDB
:101F800007F0E6FD054B91201C60BDE8104000F015
:101F90007FB900BF50500D404C500D404C0D0020FB
:101FA00008B500F053FE064B002291201A6000F0A5
:101FB00087F9912000F078F9BDE8084001F066BD8E
:101FC0004C0D00200023084A1068084A995808421E
:101FD00005D01A44D268906910F0800003D02C33E9
:101FE000582BF0D10120704728200D4050AE200022
:101FF000164A38B52C2303FB00234FF6BF72DC686A
:102000000546236C62649BB213F050020DD0A369A5
:10201000DB0609D40E4B53F825301BB12068C0B243
:102020009847F4E72368F2E738BD13F4D06F0BD07C
:102030004FF440732363FF236360E36AE262E36269
:10204000236B43F00103236338BD00BF50AE200073
:10205000500D00202DE9F04F012885B0064600F212
:10206000BF802C244443604B1D1995F920A005F135
:102070002007BAF1000F9946C0F2B28095F92230DC
:10208000002BC0F2AD80594800F052FE584A59F872
:1020900004301168EC680B43136051686B6895F964
:1020A00021B00B4353609168AB6895F822800B43D5
:1020B00093600023C4F8C83F2B690BEBCA021A6077
:1020C00095F823305FFA88FC01939DF80430604650
:1020D00019462A7DCDF80CC0029300F079F9029BD5
:1020E000DDF80CC019466046082200F067F94FFA87
:1020F00088F840494FEA08389DF9042058F8010053
:10210000012303FA02F2024348F801204FEA0A3A97
:102110005AF8010003FA0BF202434AF80120502258
:10212000A263A26B95F8240042F4D062A26302225B
:1021300062634FF440722263AA696262EA69A26232
:102140007022E26242B2002A0C4614DB95F9251097
:10215000294D41EAC20129607979120315594FB21C
:10216000BB402B431351002200F028F9234A136887
:1021700043F4004313602C2303FB069393F826508B
:1021800020336FB2002F1CDB93F807A0EDB25FFA8B
:102190008AF82846414601223F0300F019F94FFA18
:1021A0008AFA3A59012303FA0AF313433B510822EE
:1021B0002846414600F002F9104A136843F4804370
:1021C00013602C2303FB0696F26896F82800136B25
:1021D00043F00103136305B0BDE8F04F00F058B8B9
:1021E00005B0BDE8F08F00BF50AE2000C51F200035
:1021F00028200D4020940D4004410D4030D0004077
:1022000001289CBF014B43F820107047500D00205F
:10221000012808D8044B2C2202FB0030C3689A69BD
:102220009206FCD41960704750AE2000014B00228A
:102230001A60704700500D40014B08221A60704729
:1022400000500D40024BA0221A6050221A607047C5
:1022500000500D40084A094B1A60094B80321A6041
:10226000084B80321A60084B80321A60074B4FF4DB
:1022700000121A60704700BF00E100E0640D00200A
:10228000580D00205C0D0020600D002008ED00E0DE
:10229000044B41091A6800F01F000123834042F8F3
:1022A00021307047640D0020044B41091A6800F08A
:1022B0001F000123834042F821307047580D002051
:1022C000044B41091A6800F01F000123834042F8C3
:1022D00021307047600D0020054A064B1A60064BFE
:1022E0001A68064B1340B3F1807FF8D1704700BFE6
:1022F0000101020100200D4004200D4000000101F9
:10230000024B02EBC10243F822007047680D002027
:10231000F8B507460E46094D002405EB411547FA6E
:1023200004F3DB07E1B204D555F824300BB1304695
:1023300098470134082CF2D1F8BD00BF680D002089
:102340002DE9F04780464FEA0837DFF8409007F163
:10235000804505F5592500F079FCD5F8186457F843
:1023600009404FEAC80A24FA0AF446EA0400E4B233
:10237000C0B24146F6B204FA0AF4FFF7C9FFC5F845
:102380001C6447F80940BDE8F08700BF18970D406E
:1023900002480021802206F0CDBE00BF680D00205B
:1023A000034A044B1A60044B803A1A60704700BF1E
:1023B00080400D40EC0D0020E80D0020034B01EBA8
:1023C000C0011B6843F82120704700BFEC0D0020BE
:1023D000034B01EBC0011B6843F82120704700BF8D
:1023E000E80D0020024A136843F030031360704781
:1023F00000700D400E2870B50BD1164B164E1C68A0
:1024000044F002051D60356825F03F0343F00103E9
:102410003360124E336823F0FF031A431143014324
:1024200031600F4B1B681B06FBD50E4B0E4A1B6819
:1024300012680E2803F0FC0343EA022308BF064A91
:102440009BB204BF1560034A9BB208BF146018B268
:1024500070BD00BF34000144F486084008700D4090
:1024600000700D400C700D4010700D4010B58F20A5
:10247000064CFFF725FF8F20FFF716FF206818B1E5
:1024800001F0F8FA0023236010BD00BFF00D00201A
:10249000084B93F90020002A09DB074AED2111605F
:1024A0001160E32111601A7862F07F021A70012036
:1024B000704700BF4926002038880840094B1B6838
:1024C0009B07FBD4084BED221A601A60074A12687A
:1024D0000AB1EF221A60064A0120137803F07F0345
:1024E000137070474C860840388808402C86084096
:1024F0004926002038B5A0F10B04E3B20F2B0546A6
:1025000013D80B4B1B6813F03F0302D0FFF7D6FF25
:10251000012304EB8404074A0B3414600BB1FFF76A
:10252000B7FF054BE8B21D7000E0FF2040B238BD98
:10253000488608403C8608403C07002010B50B4BFD
:102540001B68990603D1FFF7A3FF012300E00023D6
:10255000074A1268D207FBD5064A1468C4F3001470
:102560000BB1FFF7ABFF204610BD00BF4886084007
:10257000648608404C860840044B186800F022002E
:10258000A0F1200358425841704700BF4C860840D4
:10259000024B186800F04000704700BF4C860840AE
:1025A00038B50C4600296CD00D286CD8DFE800F057
:1025B000070D181A216B3142476B5E606267334B1F
:1025C0001B68003318BF012356E0314B05221B68FE
:1025D00003F07F030B3B93FBF2F30B33DBB24BE0D7
:1025E0002C4B00E02C4B1A68043B1B6843EA022387
:1025F00042E02A4B002008601A68243302F00102EE
:102600000A601B6813F0200337D042F002020A6010
:1026100038BD234B1A680023D2B2224901EBC30014
:102620000079904202D851F8333025E001330E2B67
:10263000F3D11FE01C4B1B685BB2493B1CE01B4BFA
:102640001B68990603D1FFF723FF012300E0002355
:10265000174A1268D207FBD5164A1568493DEDB2F4
:102660000BB1FFF72BFF6DB2256006E00B2303E0F3
:102670001A2301E06FF017032360002038BD072301
:10268000FAE7022038BD012038BD00BF2C86084083
:102690003C860840CC850840D48508400086084028
:1026A00040860840E0AE2000588608404886084032
:1026B000648608406086084038B505460C46134BD2
:1026C0001B689B07FBD4124B93F90030002B01DBF6
:1026D000FFF7DEFE0F4BEE221A60691E1A60A21C85
:1026E00043F8102C2144022000F03EFA013C0A4934
:1026F00024012143022000F049FA022000F050FAA0
:10270000022000F065FA002038BD00BF4C8608406A
:10271000492600203888084002C001C0F8B51F4B88
:1027200093F90030002B0DDBFFF7F8FB0446FFF7B1
:10273000AFFEFFF7F3FB6FF009031B1BC342F8D496
:10274000012600E00026FFF7F9FE18B3144C2368B9
:1027500099061FD4134DE9232B60042723689A0799
:1027600007D4013F17F0FF0703D00620FFF7B2FBA5
:10277000F4E723689B0704D4EE232B6001242B602D
:1027800004E0206810F00200FBD1044626B1FFF7F8
:1027900095FE01E00220F8BD2046F8BD4926002044
:1027A0004C86084038880840044B1A6810B142F043
:1027B000010201E022F001021A6070470086084021
:1027C00038B50C46072855D8DFE800F0040F1B1F6A
:1027D00026543B4F012903D1FFF75AFE002038BD94
:1027E000002949D1FFF76AFEF8E7A1F10B030F2B8F
:1027F00042D8C8B2FFF77EFE431C0CBF0320002066
:1028000038BD8CB2E2B21D4B02E08CB21C4BE2B27E
:10281000240A1A605C60E1E731F003052CD101F075
:102820000100FFF7C1FF174B14F002001A681BBF2D
:10283000284642F0200222F020021A6008BF1A60E7
:1028400038BD01F118031F2B16D80D230E49DA00ED
:1028500051F83300844204DC8B181A790B4B1A6050
:10286000BCE713F1FF33F1D2B8E7CCB2084B4934DF
:102870001C60B3E7012038BD022038BDC885084080
:10288000D085084024860840E0AE200040860840FD
:102890005886084009280DD1082A0DD161B1074B8F
:1028A000013953F8042D01F8012F054A9342F8D15C
:1028B000002070470120704702207047C8850840FB
:1028C000A885084009280DD1082A0DD161B1074B10
:1028D000083111F8012D43F8042F054A9342F8D12D
:1028E000002070470120704702207047A4850840EF
:1028F000C485084070B52B4E336813F0400308D0F0
:10290000294D2B68DCB21B0605D5284BED221A6039
:102910001A60002070BD042CF7D9023C8C42F4DC14
:10292000E4B2032C1BD001190139032000F024F973
:10293000631E1F491B010320194300F027F90320E0
:1029400000F02EF9032000F043F9032000F04CF9C9
:102950000028FAD129682D682806D6D506E02B680C
:1029600003702B6843702B688370F3E7493949B2D1
:1029700089B2042005F09AFC032005F07F0105F0E0
:1029800095FC33685A060BD5064B1B681B0603D50E
:10299000084801F06FF803E0044BED221A601A605A
:1029A000204670BD4C86084028880840388808407A
:1029B00002C0010CE0050020F8B52B4E357815F06B
:1029C00001054ED1294B01241C605C609C60A3F57D
:1029D0009323A3F51473F8221A600922C3F89021F7
:1029E000152270331A6003F59B230B2203F59E73A7
:1029F0001A60A3F59B23A3F5F07340221A601A68AE
:102A00007F2742F020021A60D52243F81C5CDF6267
:102A1000DA61174B1878FFF76DFD164A8D201368A1
:102A200043F004031360FFF733FC134B8E201F6049
:102A3000FFF72EFC022000F0BFF81049022000F042
:102A40009BF8032000F0B8F803200C4900F08CF844
:102A50000B48294600F0F6FF3378204623433370B5
:102A6000F8BD0020F8BD00BF49260020A8200D4079
:102A70003C0700208C86084094860840288808403F
:102A8000E005002038B503880446E3B140F2B932CE
:102A9000934203D000230380032038BD822915D13F
:102AA00005F0A2FB05F03EFB8021FFF723FF002885
:102AB00005DD80B205F030FB0C4B1B6998470C4BD1
:102AC0001A78520604D440F2B9332380012038BD6D
:102AD00000221A70074B1D68FFF7F0FCFFF76CFF30
:102AE000AB06F0D0FFF7D4FCEDE700BFA8AF2000A5
:102AF000492600204886084008B5034800F0BAFF80
:102B0000024B00221A6008BDE0050020348808400E
:102B1000064B07481A68042A1FBF06490A7842F084
:102B200040020A7000221A6000F0A4BF2C880840FE
:102B3000E00500204926002010B5094C0021204660
:102B4000402206F0F7FA074B01221A602E205C6043
:102B5000FFF79EFBBDE810402F20FFF799BB00BF99
:102B60000000002004F00F4003289EBF014B00012D
:102B7000195070470000002003289EBF024B03EB52
:102B800000104160704700BF0000002003289EBF76
:102B9000024B03EB00108160704700BF0000002073
:102BA00003289FBF034901230A6883409CBF134346
:102BB0000B60704728F00F4003289FBF0349012393
:102BC0000A6883409CBF13430B60704720F00F409E
:102BD00003289FBF034901230A6883409CBF134316
:102BE0000B60704714F00F4003289FBF044B03EBAA
:102BF0000010806800F0070088BF0020704700BF09
:102C000000000020024B4FF0FF321A60704700BFF7
:102C100004F50F40014B01221A6070474CF00F4041
:102C2000094B1A6812F4801F1A46F9D1043B19683F
:102C300021F4803119601168C903FCD41A6842F488
:102C400000321A60704700BF04200D4010B50A4BD7
:102C50001A681C4612F0030F0CD0084B1A68510179
:102C6000FBD41A685201FCD5FFF742F9FFF7D8FFF1
:102C70000023236010BD00BF58200D4004200D40EC
:102C800038B5254B1C6814F03F0413D1234B53F87F
:102C9000243023B1984768B10134032CF6D1204D7C
:102CA0002B783BB1FFF734F90446FFF737F9201AC8
:102CB000092801D830BF38BD002CFBD0194B1A6849
:102CC00022F400321A60184A1168C902FBD419684C
:102CD00041F4803119601368DB03FCD5FFF71EF95E
:102CE000201A092803D8BDE83840FFF799BF6328A8
:102CF0000E4C02D92B78022B00D00123236000F068
:102D00006BFE20B1FFF78CFF0023236038BDFFF777
:102D1000FFF80028CED1F5E748860840F40D0020E2
:102D20004A26002000200D4004200D4058200D4070
:102D30000023064A52F82310814206D011B942F806
:102D4000230070470133032BF3D17047F40D0020AB
:102D5000054B00221A60054A136843F00403136010
:102D6000034B01221A70704758200D4010ED00E00F
:102D70004A26002030B5184B1A78431E3AB9174A34
:102D80001278122A03D1164A12784B2A03D001F581
:102D90002011273117E04A0802F12814B4F1281F46
:102DA00004D014F8015D03F8015FF7E701F5201185
:102DB00027310023934205DA11F801598418E554AC
:102DC0000133F7E730BD074A914204D011F80129D9
:102DD00003F8012FF7E730BD2B0028002A00280058
:102DE00029002800270028000FB407B504AA52F8CC
:102DF000041B0448019200F035F803B05DF804EBC1
:102E000004B07047F00500201FB5084C8DE80300A2
:102E1000114602A81A460294CDF80CD000F022F810
:102E2000009B00221A7004B010BD00BF599C200006
:102E300070B505460C46102C07D92B686868084900
:102E40001022984750B9103CF5E734B12B686868F8
:102E50002246BDE8704002491847204670BD00BFB9
:102E600078B620002DE9F04F80468FB0069107928A
:102E70000026069B1B78002B00F05F83069B1C46F8
:102E800013F8012B1AB9069B9C4203D10FE0252AA7
:102E9000F5D1F8E7069BD8F80400E51A0699D8F8AA
:102EA00000302A469847002840F02A832E44237891
:102EB000002B00F042836378611C002B00F03D83FF
:102EC00000240A4611F8013B2B2B11D006D8202BE9
:102ED00011D0232B12D144F00804F2E72D2B04D09B
:102EE000302B0BD144F01004EBE744F00104E8E789
:102EF00044F00604E5E744F00204E2E7A3F13101FF
:102F000008290DD8134600251A4613F8011BA1F114
:102F10003000092811D80A2202FB0515303DF3E7DD
:102F20002A2B09D1079B01321D68191D002D07911D
:102F3000B8BF44F0010400E0002513782E2B1CD10B
:102F40005178531CA1F1300009280ED819460027EA
:102F50000A780B46A2F13000092801F101010FD8CF
:102F60000A2303FB0727303FF2E72A2906D1931CE7
:102F7000079A111D0791176802E013464FF0FF37BB
:102F80001A786C2A09D15A786C2A02D144F080044C
:102F90000AE0013344F060040BE0682A09D15A7852
:102FA000682A03D144F02004023302E0013344F0E4
:102FB00040041A78642A3CD01FD8462A48D00DD83D
:102FC000252A5AD003D8002A00F0B78257E0412AB8
:102FD0004AD0452A53D144F4424450E0582A31D0D3
:102FE00004D8472A4BD144F4A13448E0612A38D0B0
:102FF000632A44D144F4A06441E06E2A3AD007D851
:10300000662A22D027D3672A28D0692A11D036E031
:10301000732A2CD006D86F2A11D0702A2FD144F4ED
:1030200040742CE0752A07D0782A28D144F4C8547B
:1030300025E044F4245422E044F410641FE044F4F6
:1030400088541CE044F4B24419E044F4007416E0DF
:1030500044F4844413E044F4024410E044F4813422
:103060000DE044F4C1340AE044F4E13407E044F4F0
:10307000806404E044F4E06401E044F4C06401339B
:10308000069304F4E063B3F5806F00F0AA8116D8CC
:10309000B3F5807F2BD0B3F5407F7FF4EAAE079B7A
:1030A000A04914F4804F03F104029F4818BF08465A
:1030B0000DF1330107920F461A680023C5E1B3F5FD
:1030C000C06F08D0B3F5E06F00F03182B3F5A06FA8
:1030D0007FF4CFAE00E2D8F80030D8F8040093496E
:1030E00001229847002840F00B820136C1E6002FEC
:1030F000ACBF24F01004012714F40053039304F030
:10310000E00337D0402B17D008D8DBB1202B2AD1D1
:10311000079B1A1D079293F9002017E0602B11D02E
:10312000802B20D1079B073323F0070303F108020C
:103130000792D3E900230AE0079B1A1D0792B3F90F
:10314000002003E0079B1A1D07921A68D317002A74
:1031500073F1000109DA524263EB4303CDE9002326
:103160004FF0010933E000220023CDE900234FF0A6
:1031700000092CE0402B16D007D8CBB1202B20D152
:10318000079B1A1D07921A78EEE7602B10D0802B50
:1031900017D1079B073323F0070303F108020792B7
:1031A000D3E90023E1E7079B1A1D07921A88DBE7A2
:1031B000079B00211A1D07921B681846CDE90001E4
:1031C000D5E700220023CDE900234FF0000904F4E5
:1031D000C053B3F5805F0CD0B3F5C05F33D0B3F507
:1031E000006F4FD1DDE900230DF1360ACDE904234C
:1031F00004E0DDE900230DF1360A15E0DDE90423E2
:1032000013433AD0DDE904010A22002305F060FBF4
:10321000DDE9040130320AF8012D00230A2205F00D
:1032200057FBCDE90401E9E752EA030125D002F09A
:10323000070130310AF8011DD10841EA4371D8086D
:103240000A460346F0E7384B14F4804F0DF1360A76
:10325000344908BF1946DDE9002352EA03000CD0C7
:1032600002F00F00085C4FEA131E0AF8010D100966
:1032700040EA037002467346EFE70DF1360BCAEBE6
:103280000B0B03E00DF1360A4FF0000B41F608027C
:1032900041F208035F4502EA04028CBFCBEB07074B
:1032A00000279A4202D1002F08BF012741F60801EA
:1032B0008A4207EB0B030DD1DDE9000150EA010260
:1032C00008D01B4914F4804F1A4A4FF0020C18BF63
:1032D0000A4602E04FF0000C62460399A1B1B9F131
:1032E000000F0AD104F0060102290AD0062912496A
:1032F00004BF4FF0010C0A4606E04FF0010C0F4AE4
:1033000002E00F4A4FF0010C63449D428CBFED1A5E
:10331000002514F0010922D1E30613D52F444D46B0
:103320001DE000BF43B6200054B6200076B6200052
:1033300068B6200065B620006DB620006BB6200090
:10334000C7B3200040462946CDF80CC00092FFF7D5
:103350006FFD009ADDF80CC0002840F0D180BCF170
:10336000000F0DD01146D8F800306246D8F804009E
:10337000CDF800C09847DDF800C0002840F0C080BC
:103380003C465E44102CD8F800300DD9D8F8040023
:103390006C491022CDF800C09847002840F0B0805A
:1033A000103CDDF800C0EDE75CB1D8F804006549D9
:1033B0002246CDF800C09847DDF800C0002840F054
:1033C0009F80D8F80030D8F8040051465A46664429
:1033D0009847002840F094803E44B9F1000F79D01E
:1033E00073E0079BD3F800A01A1D0792BAF1000FF3
:1033F00009D05346994699F800200133002AF9D1A3
:10340000CAEB090903E0DFF840A14FF00609002FDD
:1034100002DBB94528BFB9464D458CBFC9EB050550
:10342000002514F0010405D140462946FFF700FDB0
:10343000002865D1D8F80030D8F8040051464A4633
:10344000984700285CD14E443EE052EA030E0ED06D
:1034500002F00F0E10F80EE04FEA131C01F801ED18
:103460004FEA121E4EEA037E72466346EDE70B46B4
:103470007F1A01BF3022012701F1FF3301F8012C2F
:1034800003377822BD4203F8012C4FF0300203F8D5
:10349000022C88BFED1B4FF0230298BF002514F0CB
:1034A0000104A3F1030903F8032C04D14046294683
:1034B000FFF7BEFC20BBD8F80030D8F8040049461E
:1034C0003A469847E0B93E4424B140462946FFF7C2
:1034D000AFFCA8B92E44CCE4079B012D03F10402F4
:1034E0001B688CBF05F1FF35002514F0010407921D
:1034F0008DF8203008D140462946FFF799FC10B1DD
:103500004FF0FF301AE02E44D8F80030D8F804000D
:1035100008A9012298470028F2D16F1C2CB140461F
:103520002946FFF785FC0028EAD13E44A1E4079B29
:103530001A1D1B6807921E609BE430460FB0BDE861
:10354000F08F00BF33B620006FB62000F8B50388B7
:10355000064615462BB14A2B15D0002303800320C5
:10356000F8BD174806F0F2FB04462CB1201DA168F7
:1035700006F09EFB2468F8E7124B01221A704A23DA
:1035800033800120F8BD8829FBD10D4806F0DEFB11
:103590000446002CF3D0231D9D420ED1084821463D
:1035A00006F0DEFB084B62691F681A60A2691D46BF
:1035B0000AB1E06990472F60E1E72468E9E700BFBE
:1035C000000E00204B260020100E002010B5064BE8
:1035D000002406481C7006F0B6FB2146BDE81040EA
:1035E000034800F02FBA00BF4B260020000E002039
:1035F000F805002070B504460A4DE3610A4B2E68B9
:103600001B786661A26133B1084B201D2B6006F068
:103610004FFB2E6000E0A1602146BDE870400448E9
:1036200006F0B2BB100E00204B260020F80500204B
:10363000000E002070B5094B05461B783BB1084CC5
:10364000084B26680430236006F03BFB26602946C1
:10365000BDE87040044806F097BB00BF4B26002031
:10366000100E0020F8050020000E002010B5084BB9
:1036700004461B781BB1043000F0A8F801E0C360D9
:1036800003612146BDE81040024806F069BB00BF57
:103690004B260020000E002010B50E4C236813B9F5
:1036A0000D4A136010BDFEF701FC216891E80C0083
:1036B0001A44131A8A6842B192E812002144091A86
:1036C0008B4228BF0B469268F5E71844024B1860FE
:1036D00010BD00BF040E0020080E0020014800F0BD
:1036E000C9B900BF08060020F8B5038805462BB10C
:1036F000592B09D0002303800320F8BD1E4A136014
:1037000059232B800120F8BD872920D08229F7D1A9
:10371000194F00263C68002CF2D0204606F005FB2D
:1037200090B1E0688821224600F060F950B9E0606D
:10373000A3680EB1B36000E03B600023A360FFF715
:10374000ABFFE5E7FFF7CAFF2646A468E3E70A49AF
:103750000B680BB90B60D3E7D868904201D19B6826
:10376000F7E70B6099680029CAD0C86890420ABF81
:1037700089680B469960F5E7040E002010B50446F1
:10378000FFF7ACFFE3680B4A4BB113683BB1A342B0
:1037900003D1094A1268DA6007E09B68F6E7064B36
:1037A0001B68E36013681460A360BDE81040FFF776
:1037B00073BF00BF040E0020100E0020024B1868DB
:1037C000003018BF01207047040E002010B50B4ACE
:1037D00004461368984206D18368136008E09A682B
:1037E000A24203D01346002BF9D103E0A2689A60ED
:1037F000FFF752FF0023A360E36010BD040E00201A
:1038000038B5836804460D469BB10A48046002201F
:10381000A07304F10C0098470238012801D9832DC8
:1038200005D120462146BDE8384000F005B8012307
:10383000A37338BD100E00202DE9F8431C4A04463E
:10384000156889462B4690461A4E3768A34204D025
:103850000BB11B68FAE7BDE8F88334B3A37BABB1C7
:103860000023A37345B1AC4204D0284687212246E9
:1038700006F041FA2D68F5E7A3683BB14C4505D049
:10388000346004F10C0083212A469847D8F80030B0
:103890009C4203D12268064B05E0134623B11A6807
:1038A000A242FAD122681A603760BDE8F88300BFEF
:1038B000180E0020100E002010B5094B00221A70BF
:1038C000084B1C685CB1E37B3BB101230022A3736E
:1038D000E27320468221FFF793FF2468F2E710BDD0
:1038E00050260020180E0020024B1878421C1A7037
:1038F000704700BF51260020064B8A221A70064AE4
:1039000000231370054A1370054A1360054A1360BB
:10391000704700BF512600204D2600204F26002072
:10392000180E0020100E00202DE9F041214E3378B2
:103930000BB1FFF7C1FF204D2C78002C34D0DFF8FD
:103940008CE00C229EF800301C495A4388181C4F0A
:10395000895CDFF87C804268DFF878C080680133DA
:1039600003F01F03013C3970C8F80020CCF80000B8
:103970008EF800302C7088B9124C134B1B682360F2
:1039800023688BB133780BB1FFF796FF2068397845
:10399000D8F8002006F0AFF92368EFE7812904BFCB
:1039A0000123837306F0A7F9337828781844BDE81B
:1039B000F08100BF502600204F2600201C0E002062
:1039C0004E260020140E0020180E00204D26002048
:1039D0000C0E00209C0F0020024A034B10781B782D
:1039E000184470474F26002050260020F0B50C4E9A
:1039F0003478202C11D00B4B0B4D1B780B4F2344EC
:103A000003F01F032B700C256B430134FD18A860D5
:103A1000F9546A6034700020F0BD0120F0BD00BF91
:103A20004F2600204D2600204C2600201C0E002092
:103A300038B5034C256806F05EF9256038BD00BF37
:103A4000100E002010B50A4609490C68234683422F
:103A50000DD00BB11B68FAE748B104600860012182
:103A6000817383818121BDE81040FFF7E1BF10BD64
:103A7000180E002038B1837B013B012B9FBF024A07
:103A80000123C373137070475026002010B5084CF3
:103A9000206858B1002323608168436898472368F1
:103AA00023B1BDE810401868FEF74EBA10BD00BF44
:103AB000A00F002038B505880446672D09D0792D60
:103AC0002ED0002D32D1FFF70FFF1B4B18701B4B70
:103AD0001D601B4806F0EBF9431C01D167231DE074
:103AE0000A28164B07D01A687E2AF2DC511C19608E
:103AF000144B9854EDE7196800254A1C1A60114AC6
:103B00000D4B555428461978FFF770FF0E4B852151
:103B100018682A46FFF76AFF20B97923238009E055
:103B2000852907D1054B00221A60D2E700230380C4
:103B3000032038BD012038BDC8310020AC0F002063
:103B4000A40F0020D3260020100E00200D2810B551
:103B5000014615D00B4C23782BB90B4806F093F98E
:103B600048B9012306E00A2805D1074806F08BF979
:103B700008B1002323700548FFF77CFF012010BD2A
:103B8000002010BDD2260020A40F0020180600201F
:103B900008B505480549802206F06EF9BDE80840E1
:103BA00003480021FFF74EBFA40F0020522600203B
:103BB00018060020054A136843F004031360044B01
:103BC0001B68906943EA002080B2704700700D4086
:103BD00014700D40174A136823F00C031360164B42
:103BE00001221A601A68012AFCD1144B08221A60BB
:103BF000E322C3F8142203F505731946104B1B6822
:103C0000DB07FBD5102000230E4A0138126802F0B2
:103C1000010243EA02034FEA43039BB2F4D1002BB3
:103C2000F0D0094A180A03F0FE0310601360EF2376
:103C30000B60704700700D40A8200D40248608409E
:103C4000648608409C86084014700D4008B50648FC
:103C500002F0DAFC054B01221A7000225A70AA22E7
:103C60009A70DA7008BD00BF5D3E20005427002026
:103C700010B50F4C0220A17904F018FBA379112B89
:103C800001D0062B05D1238D618D9942A8BF19461D
:103C900008E03A2B05BF94F8281094F82930002149
:103CA00043EA01210120BDE8104004F0FFBA00BF43
:103CB0008028002010B513780446087A83F00203A8
:103CC00098421DD1487A5378984219D1887A9378CE
:103CD000984215D1C87AD378984211D1087B1379CC
:103CE00098420DD1487B5379984209D1887B9379CA
:103CF000984205D1C87BD379984201D103201BE0BB
:103D00000B890F4A6BB94B89B3F57F4F09D18B896A
:103D1000FE2B06D11368C989022023F8021B136009
:103D20000AE0136851F8080F083343F8080C486894
:103D300043F8040C13600120A040C0B210BD00BFC6
:103D4000B80F002010B5084C01462378012B08D18C
:103D5000A01C082205F0E2F800280CBF2046002035
:103D600010BD002010BD00BF5427002008B501463B
:103D7000102004F0A9FA044B04489B6800219847DE
:103D8000BDE80840FEF75EBAC8AF2000913D2000B4
:103D900010B508460C46114601F0B0FC044B1B68F8
:103DA00013B19B6820469847024B1C6010BD00BFB2
:103DB000E4140020CC0F00202DE9F8434FEA12193B
:103DC000B9F10F0F80461D4602F00F040BD00F2CE7
:103DD00005D1B9F1000F0AD11024274619E0B9F135
:103DE000000F09D004E00F2C4FF0100900D110246F
:103DF00040464A4605F0C4F809EB04020F2A27465C
:103E000006DC08EB09000021C2F1100205F092F96E
:103E1000BCB1114DC7F110002E6840443146224616
:103E200005F0AEF8022C08D1B9F10A0F9FBFFF23AD
:103E300088F80B30FE2388F80C3034442C60BDE841
:103E4000F883B9F1000F05D040462946BDE8F84394
:103E500006F091B8BDE8F883B80F00202DE9F04FC7
:103E6000944E954D002387B033702B70044604F0B8
:103E7000BBF904F057F9914F04213860092004F090
:103E800015FA8F4B8DE860001B680BB1FFF7F0FE51
:103E900004A80CB98B4900E0214606F082FD8A4B4C
:103EA0008A4E1A8803933E2A40F20B82D7F800A06C
:103EB000874D0AF102032B60009B06F1180093F86E
:103EC0000090002309F102090AF80930FFF73AFFD0
:103ED00020B906F10800FFF735FF20B10AF103030E
:103EE0002B60802400E0044672783078130943EA9E
:103EF0000013DBB2990841EA8313DBB212F00F0F13
:103F0000D9B2DFF8CC8100F00F000ED16F4E768869
:103F10005EB910B912F0F00F21D0D8F80030702639
:103F200003F8011BC8F800301AE078B912F0F00F5E
:103F30000CD1296823F03F031A43664B0A701B8893
:103F4000033121F8023C6826296009E05F4A2B68AA
:103F500010686026186003F8041B2B6000E07826C8
:103F60005A4B9A790293112A08BF46F00406730748
:103F70005EBFD8F8003003F8012BC8F80030029B70
:103F8000DB79402B06D0FF2B07D0012B08D146F060
:103F900001060BE046F0020608E046F0030605E0E5
:103FA000D8F8002002F8013BC8F80020029A474BDD
:103FB000128982B95A8972B99A8962B9DA8952B971
:103FC0001A8A42B95A8A32B99A8A22B9DB8A13B953
:103FD00044F0400013E04048FFF7B4FE3F4B186048
:103FE00078B142781AF80930042043EA02130AF83B
:103FF000093039493A4AFFF75DFE60F03F00C4B22C
:1040000028E0029B31491A8948F2FE039A420CD1FA
:104010004B8B53B98B8B43B9CB8B33B9042008310D
:104020002F4AFFF747FE2043E9E7D8F80020DFF8E2
:10403000A8C096460CF1100B634603CB5B45CEF847
:104040000000CEF804109C460EF1080EF4D1204B6F
:1040500010321A60DFF874B09BF81830FF2B40F074
:104060008D809BF8192044F0080C022A5FFA8CFC22
:1040700038D1BBF81A30ABBBBBF81C3093BBBBF8D4
:104080001E307BBBBBF8203063BBBBF822304BBB80
:10409000BBF8243033BB9BF826301BBBD8F800306C
:1040A0009BF8272044F00B0003F8012BC4B2C8F89A
:1040B0000030A2E0532700205E270020C40F00201C
:1040C000E414002006B7200070280020802800207B
:1040D000B80F00208228002088280020B00F002080
:1040E000782800209C4B588B194688BB988B78BB4E
:1040F000D88BA8B9188C98B9588C88B993F8240033
:1041000070B9296844F00A00C4B2084600F8012BCF
:1041100033F8252F043121F8032C9B78837015E0A8
:10412000C98B8D4BA1B9198C91B993F8221079B92B
:10413000296844F00900C4B2084600F8012B53F87E
:10414000232F063141F8052C1B790371296054E0B7
:10415000824ADFF81C82146808F11009A64643461B
:1041600003CB4B45CEF80000CEF8041098460EF174
:10417000080EF4D11034146064463EE00BF11800D0
:10418000FFF7E0FD764B186050B143781AF809103C
:1041900044F004040B43E4B20AF8093000200EE0B6
:1041A00048F2FE03BBF818209A4210D1BBF81A302F
:1041B0006BB9BBF81C3053B9BBF81E303BB90BF1DF
:1041C000180104AAFFF776FD2043C4B215E0634A44
:1041D000DFF89C81D2F800E008F11009F44643466C
:1041E00003CB4B45CCF80000CCF8041098460CF1FA
:1041F000080CF4D10EF110031360019A56492823DC
:1042000013708B79112B51D14FF2B0030A8D52BA32
:1042100092B222F00F0080B2984215D14B8D5BBA5A
:1042200023F00F031B041B0C83420DD12868F323DA
:1042300003704B8D1A0A0B8D1B0A02EB031303F557
:10424000AA634370831C27E0029B43495B8D5BBAE2
:1042500003F47F43B3F5704F09D12B68F1221A7034
:104260000A8DA3F801204A8D120ADA700CE002F4DC
:104270007F42B2F5704F2B6808D1F2221A700A8D76
:10428000120A5A704A8D5A80043305E0F0221A70DF
:10429000886A053343F8040C2B60324B1A882B686C
:1042A00023F8022B019A2B6030231370009B3A688D
:1042B0001B78D65413445C70284B1B689B1A009AD9
:1042C00019E03A6841231370009B06F128051C7819
:1042D000631CDBB21344324603CAAA421860596019
:1042E000164603F10803F6D1009B29341C70019B8C
:1042F000019A1B782833102013700DEB000103F096
:10430000E3FF194BDFF86C901B689847174B30EAB6
:10431000200428BF15245B699847039BC4F17D04E2
:104320001D88019B241A1E78009BAA1B93F800800D
:10433000DFF844B0C8EB04039A42DFF840A040F332
:10434000CC8003F0EBFF7823B5FBF3F50135A842F1
:1043500016DC0020D2E000BF80280020B80F00202B
:10436000B00F0020AE2800207CAF2000C8AF200096
:104370009828002070280020532700205E27002066
:10438000D7F800809AF8005041462A4608F1040008
:1043900004F06CFEB9F800305A4A6FEA83436FEAC2
:1043A0009343C3F3072388F80030B9F8003004358D
:1043B00088F801301388EDB2190A88F80330013308
:1043C000DFF854C188F8021013809BF80010631BBB
:1043D00023F007034C4E61441A4608EB0500CDF864
:1043E00008C08AF800503360019304F0C9FD019BB6
:1043F000581980B203F090FE03F096FFDDF808C074
:10440000804665460028A4D004A8FFF7AFFC4046CC
:1044100003F0C2FF404603F0A9FF3C4A13689046F0
:10442000012B96D0043B012B93D99BF800B0336845
:10443000053C5B441FFA83FB05238AF80030344BAC
:1044400024F007041A68B9F8003034606FEAC343F7
:104450006FEAD343C3F307231370B9F800305370E6
:104460002C4B1B889B4548D23A684FEADB011171FF
:104470003268CBEB03039342B8BF234A3868B8BF16
:104480001360009B346893F80090224605EB0B0103
:10449000484404F075FD09EB040080B203F03CFED3
:1044A00003F042FF044600283FF453AF04A8FFF78F
:1044B0005DFC204603F070FF204603F057FF124BCF
:1044C0001B689B44D8F800301FFA8BFB012B3FF48C
:1044D00040AF043B012BC3D83BE738680E4940444A
:1044E000314404F04DFDB9F800004044801B80B217
:1044F00003F012FE04A8FFF739FC012007B0BDE865
:10450000F08F00BF92200020C80F0020CC0F0020A9
:10451000C40F002070280020802800202DE9F04FD3
:10452000A04FA14E87B000243C70347003F0FAFD18
:104530009E4DB8462860042003F0C0FE9C4B00B29C
:1045400018609C4805F0F1FBDFF894B2009518B1B3
:10455000994BABF800401C80009B1B6819785D7874
:1045600045EA012501F0F801C0291AD0E02926D139
:104570009F7893F804A0DB78BBF8004043EA072754
:104580003378C5F30A050533337003F0DFFD2044AB
:1045900034784FF00009041BAC42B4BF002401245E
:1045A00094E29F78DB78002443EA07273378C5F349
:1045B0000A05043333704FF00109A24686E27E4BB0
:1045C00000241C80A14627462346A2462546ABF878
:1045D0000040BBF80020AAB1002D00F09182764B7C
:1045E0001B88AB4240F08C82744B1B88BB4240F06E
:1045F00087820F2003F074FE0146714806F0D6F959
:10460000D8B97DE240F213516A1E92B28A4214D8A0
:104610001BB1B9F1000F00F07382674B4FF480615A
:104620001D80664B63481F8005F06DFB0F2003F073
:1046300057FE0146624806F0B4F93778052F00F0BE
:10464000CD81009B1968CA5D02F0E003602B40F049
:10465000AC81B81C0F4497F801B00844594B5FFA7D
:104660008BF10E06186044BF0130186012F0100F75
:104670000091554E02F008012FD1D1B9196831F8D7
:10468000010FA6F801008978F170196811F8040B80
:104690001960830803F00F0141F0600131707178F7
:1046A00003F0300343EA801301F00F010B437370F2
:1046B0002EE0186860210746317017F8011B03309F
:1046C0004FEA910E0EF0300E01F00F014EEA01019B
:1046D00071703988186071801AE001F0FF0791B994
:1046E00019680878C0F3830040F06000307011F85A
:1046F00001EB77804FEA9E0000F0300040EA8E1018
:104700007070196004E0602333700023737073804D
:1047100002F0040303F0FF0101912B4F2BB929494B
:104720000B6813F8010BB8710B6012F003020BBF9A
:10473000244A264B13689B5C09BF13F8011BFB71CD
:104740001360F9711BF0400FCBF301124AD0009BAC
:10475000190641BF1549144B09681B7851BF002148
:104760005B189978090982B1194B1878012805D18D
:10477000587888420CBF1946002100E00021154BF3
:104780001960002940F0BA8128E11146124B0F2030
:104790009A5C0391029203F0A3FD039903460F482C
:1047A00029E000BF532700205E270020C40F00200F
:1047B000B40F0020BC0F0020902000208E2000208D
:1047C000C9310020B80F0020D00F0020B3B6200060
:1047D00054270020B00F0020CCB62000D80F0020B6
:1047E00094200020A64B0F209A5C029203F078FDE3
:1047F000A4490346A448029AFFF7DEFA0BF008002A
:104800000BF0030200F0FF010BF00403B0B1002B2A
:104810004AD19E4B1B88ADF81430531E012B9FBF0D
:104820009B490B6813F8010B0B609A4B98BF8DF8EE
:1048300015009A5C984805A9002333E0002B27D087
:10484000009B1B0641BF9549954B09681B7851BFDA
:104850000B465B18997801F00F03924908780128FC
:1048600004D14878984218BF002100E000218E4B07
:1048700000911960002900F0B1808C4B102013F8D2
:1048800002B003F02DFD009903460231824808E092
:104890007B4B102013F802B003F022FD7949034648
:1048A0007D485A46FFF788FA98F80000784900F1E9
:1048B000280388F80030019B002B56D00B681A782B
:1048C00002F0F802F02A50D11122BA711A7802F0DF
:1048D000040E02F0F302F03A5FFA8EFE032A7DD84E
:1048E000DFE802F0020A1622B3F8012005333A8508
:1048F00033F8022C7A852CE0B3F801203A85DA7877
:10490000A2F5805292B2120242F0F0027A8509E0DA
:104910005A78A2F5805292B2120242F0F0023A8521
:104920005A887A85043314E05A7802331209A2F5C2
:10493000756292B2120242F0F002328513F8012C35
:1049400002F00F02A2F5756292B2120242F0F0027A
:1049500072850B60BEF1000F04D10B6833F8022B97
:10496000FA850B60303088F800004C4A0B681268FA
:104970009B1A4B4A137065B903F0E8FB484B1B7850
:10498000C01A98F800301844283803123B71787127
:1049900004E0A5F128031A123A717B71BA79444BED
:1049A000112A1BD19A889A8518E0412A40F0A880E4
:1049B0007A1CD2B28B18DFF8F8E003F1280C7246AB
:1049C00018685968083303C263459646F7D198F8CA
:1049D000003029372833377088F8003003F0B6FBF1
:1049E0002F4E3378834200F28B8003F0AFFB337895
:1049F000304AC71A176040F2145298F800B00BEB17
:104A0000CA0A0AEB070191427AD8244A2848116859
:104A1000504419443A4604F0B3FADFF8AC80264E0D
:104A200065B1B9F1000F02D032885A4432800CB11E
:104A3000358007E032883A44328003E007EB0B020E
:104A4000A8F8002033881BB1B8F800209A4257D14B
:104A5000B8F8004019482246154904F091FA184B5D
:104A60001C80184C0023A8F800303380236823B141
:104A7000FFF7FEF823685B68984701F0EBFD3FE025
:104A8000B7B62000BBB62000D80F0020B1B620007A
:104A9000B80F0020BDB62000E80F0020C40F002092
:104AA0005E27002054270020B00F0020CCB6200045
:104AB000D00F0020C80F0020942000208028002064
:104AC00070280020E414002090200020BBF8003063
:104AD00093B1B9F1000F0FD00F2003F001FC014694
:104AE000094805F063FF18B9084B1880084B188077
:104AF0004FF001094B466CE501236AE5023145E6BA
:104B000007B0BDE8F08F00BFC93100209020002021
:104B10009420002037B5124B124D1C782B796A79FE
:104B2000C4EB032313449BB2ADF80630BDF8063046
:104B300005F108011844202280B205F0C8F9BDF83B
:104B4000062004F12801294492B205F0C0F910B101
:104B500040BA80B201E04FF6FF7003B030BD00BF35
:104B60005F2700208028002028492DE9F041884651
:104B70000D78274E2835AB195C782648E4000734B9
:104B800002239C423DDBE9187218715C204F012919
:104B900032D002D3632902D013E001332FE0037037
:104BA00018461C4C02F084F9D8B998F800302278E5
:104BB000283313443B445B78134402332370BDE82D
:104BC000F08101F0C001802905D0C02905D040291D
:104BD00012D1037005E0037006E03A7E0370FF2AED
:104BE00002D10120BDE8F08104200221EA1801F081
:104BF0003FF90220BDE8F081527802321344DBB263
:104C0000BFE703700020BDE8F08100BF5F270020F0
:104C1000802800206127002008B500F089FC01F001
:104C20000FFA01F0DBFC084B4FF480621A8000237E
:104C3000064A002102EB43120133DBB20A2B118238
:104C4000F6D1034A137008BD96200020B42D002031
:104C5000622700202DE9F041134F3D7815B3DFF8AE
:104C6000508005F12703B8F80040A34205DB00237C
:104C70003B70A8F80030BDE8F0810C4EA4F128028A
:104C800005F12801641BA4B206F128003144521B2F
:104C900004F0ECF9A8F80040283C231233710023FB
:104CA00074713B70BDE8F0815F27002080280020F0
:104CB000702800202DE9F041034626480288013281
:104CC00092B2B2F5FA4F28BF4FF4805200240A2C5A
:104CD0000AD0214D05EB44152E8A55BAADB2AE422D
:104CE00004F10104F3D1EAE7DFF874E00280002266
:104CF0000A2A18D0184E55017419B4F81080571CA0
:104D0000FFB2B8F1000F0CD18EF80020028861824A
:104D100052BA228263B920461946102204F00AFAD8
:104D200011E03A46E4E78EF800200020BDE8F0816B
:104D3000274603F1100E3A4618685968083303C233
:104D400073451746F7D1054B35441B7920462B7523
:104D5000BDE8F08196200020B42D0020FC2E00201C
:104D60006227002004282DE9F84F944E00F0C781F7
:104D7000934C944B9449052823600B602746884642
:104D800012D1924A1268128A002A00F0F8810C3B74
:104D900023600B608E4B00228E481A808E4B02607F
:104DA000328008221A70A8E113F83C2CA3F13C04CD
:104DB00002F0F002602A40F0E28122796179120269
:104DC00030885518854200F3DA8128310A44328050
:104DD000227AFF2A00F0D381804A363B1360804D4F
:104DE000804B002129701970A17992469946B9B972
:104DF000012389F80030FFF7B7FE012800F0BF81DA
:104E000003D3022800F0B6810AE02B7803F12802D0
:104E10002244CAF800205278083303EBC2032B70F7
:104E2000714800F021FA002840F091806E4800F0AF
:104E3000C1FA002840F08B80227E6C4BFF2A46D0BE
:104E400048F2FE00198B814241D0198981423ED03F
:104E500071B9598961B9998951B9D98941B91B8AFF
:104E600033B9618A614B19B9998A09B9DB8A73B37D
:104E7000218B5E4B79B9598B69B9998B59B9D98B0B
:104E800049B9198C39B9598C29B9998C19B9DB8C64
:104E9000B3F5807F1BD03388B3F5A06F04D902200F
:104EA00000214FF4A06206E0E379504D012B05D8B4
:104EB00000210A46032000F0DBFF5BE102F046F828
:104EC000002840F05C81EB79013BEB7152E148F244
:104ED000FE032189994240F05281218B434B81B9D5
:104EE000598B71B9998B61B9D98B51B9198C41B969
:104EF000598C31B9998C21B9DB8CB3F5807F00F0E6
:104F00003E81FF2A00F03B81374800F08DF90246D0
:104F1000002840F0348101200221CCE71FD93B2B2F
:104F200000F02D813C2B22D199F800302D499807B3
:104F300035D5580679D443F040030B70FFF714FEC3
:104F4000012800F01C812DD3022800F01381DAF82B
:104F50000020DFF888B013782C2BDFD10FE1112B64
:104F600000F083802B2B43D0002B5ED102E03A2B44
:104F70005BD15EE099F80030D90756D4194A43F066
:104F800001031370FFF7F0FD012800F0F880DBD279
:104F90002B7803F128022244CBF8002008E043F0EC
:104FA0000203CAE72B7803F128022244CAF8002042
:104FB0005278083303EBC2032B70C8E77028002037
:104FC000A02D0020BC280020742800209C2D00204B
:104FD000B02D0020A42D0020942D0020982D00201D
:104FE0005F270020602700209828002080280020CC
:104FF00099F8003003F0040000F0FF01A8B9654AF9
:1050000043F0040313702A7802F128032344D8786C
:1050100010B104202A324EE7CBF800305B7808321A
:1050200002EBC3025C4B1A7091E704200121121BB2
:1050300041E704F068FF4FF6FF73984240F09F800D
:105040002B782833E05C01F0F1FA2B782833E21852
:10505000E05C517800F0EAFE012804BF00233380B1
:105060003388002B00F08B8084E0FFF7F3FD33885A
:105070004A4D303B3380E38D3D6063B9B4F82AA0DC
:10508000BAF1000F7BD0464B464A99461A60464A11
:10509000B2F828B00BE004F039FF4FF6FF739842E6
:1050A0006DD1EBE7238A43B92034C9F80040D9F821
:1050B00000403E4B9C42F5D361E09A45F4D1638AAF
:1050C0000BB19B45F0D123682BB963681BB9A3686A
:1050D0000BB9E36833B136482146102203F01EFFB6
:1050E0000028E1D1334A00231360334A02211170B2
:1050F000324A3D60C8F80050138001F0BBFB2F4BD3
:105100001A88002A3BD002F13003274C9BB233802F
:10511000283B19126371224B08321B6852BA217165
:10512000197DA2850022E2851A8AE17122855A8AB8
:1051300011216285A17104F118050FCB85E80F00DC
:1051400004F10800294600F095F91D4B04F13C02DA
:105150001A6004F0DBFEC04380B208B1E08502E0D3
:105160004FF6FF73E38502F007F8602323700023F6
:1051700063706380104B00221A70BDE8F88F064AF6
:1051800000231370034A338013700B4A1370BDE879
:10519000F88F00BF602700205F270020B028002084
:1051A0009C2D0020B42D002080280020F42E00200B
:1051B00088280020A42D0020942D0020B02D002050
:1051C000A02D00202DE9F3410446154D00910E4617
:1051D00090461F460195234612480321202204F0E1
:1051E000A2FE01282B4616D12A6804F11001107086
:1051F00020462A68023250F8044B884242F8044B99
:10520000F9D11868089B86744361099B80F8138064
:105210000777836100E0002002B0BDE8F08100BFA5
:10522000EC140020F82F002070B506460B4D0C4BF7
:105230002B602C680B4B9C420BD2237833B1A27CA1
:10524000A01C3146D20803F069FE20B120342C6046
:10525000EFE7002070BD012070BD00BFEC140020FE
:10526000F82F00205830002013B5084C8022034648
:105270000092019406480321202204F054FE08B94C
:10528000206800E0002002B010BD00BFF014002034
:10529000142F002010B50C4A0C4B136013680C49F6
:1052A0008B420DD2197849B1411C02D0997C8142C0
:1052B00004D148F2FE015C888C4202D02033ECE736
:1052C0000023184610BD00BFF0140020142F00204A
:1052D000742F002037B504460F4D802300930195AD
:1052E00023460E480521122204F01DFE01282B46FC
:1052F0000ED12A6804F11001107020462A6802328B
:1053000050F8044B884242F8044BF9D1186800E089
:10531000002003B030BD00BFE8140020982F00200B
:10532000F7B50546204C802300930E46174601949E
:105330001E48032120222B4604F0F5FD012830D120
:105340002A46236805F1100118702368023352F8C9
:10535000040B8A4243F8040BF9D12068C77416B9CC
:105360000123037505E0002303753146183005F06D
:10537000F3FB23680E480121997402234370FF2236
:105380000023027043808380C38003818372C172D3
:1053900002736B7B4373EB89C381FFF79BFF20682C
:1053A00000E0002003B0F0BDF0140020142F002016
:1053B0009820002013B5084C8022034600920194E7
:1053C00006480521122204F0AEFD08B9206800E06D
:1053D000002002B010BD00BFE8140020982F00206C
:1053E00038B50546C8B10D48022200244270FF239B
:1053F0000122C27244808480C48004818472037359
:105400000370EB7B43732B8AC381FFF7D3FF044AFE
:10541000106008B104F0ABFD2C7038BD982000205E
:10542000E814002010B50F4B0F4C236020680F4B81
:1054300098420ED203784BB1037D3BB9183003F08C
:1054400059F918B1084B1868FFF7CAFF23682033D1
:10545000EBE700F0E1FB00F067F9BDE8104004481D
:1054600004F02FBC142F0020F0140020742F002013
:10547000583000202DE9F84348F2FE030A8805461B
:105480009A42884621D00B78FF2B1ED01B4B00245C
:10549000A1461F461A4A1A603E681A4A964218D216
:1054A00033787BB1B37C012B0CD148F2FE037288B8
:1054B0009A4207D04046B11C04F066FD484524BF1F
:1054C0003446814620363E60E6E70120FFF7E2FEE3
:1054D00004464CB92C806C80AC80EC802C816C81B3
:1054E000AC81EC81BDE8F883A31C123453F8042B83
:1054F000A34245F8042BF9D1BDE8F883F01400204D
:10550000142F0020742F002010B5FEF753FB044623
:10551000FEF750FB054B24029A68A4B22044B0FB6E
:10552000F2F302FB130000EB520010BDFC2E002032
:1055300073B52F4C00F07CF800F0A0F90021602238
:105540002C4803F0F7FD00212046F82203F0F2FD7D
:10555000294B20221A70294B18221A704FF4A0638D
:105560002360274B40262671A360FFF7CDFF42F250
:105570001073236148F2FE03314640F2FF260025F6
:10558000E06025751F4C2A46238065802B46A58048
:10559000E580204600950195FFF714FE20461A4944
:1055A00004F0E9FC294601222046FFF7B9FE4FF43A
:1055B00080732046E38126806580A580E580258173
:1055C0006581A581FFF786FE4FF400732046268093
:1055D0006580A580E58025816581A581E381FFF750
:1055E00079FE0A480C2102B0BDE8704004F060BBAF
:1055F000FC2E0020F82F0020F52F0020F42F002093
:10560000C02709009820002078280020583000206A
:1056100010B5044640B101F001FA044B2146BDE843
:105620001040186802F0DEBC10BD00BF2806002044
:10563000024B0349186802F019BC00BF280600207D
:10564000115620002DE9F8439846154B0546186879
:10565000914602F039FC0446F0B1074605F110030B
:105660003E4628686968083503C69D423746F7D12B
:1056700004F11000002184F8219084F8228005F0C4
:105680006BFA04F11800002105F066FA002384F893
:105690002030204601F0C2F92046BDE8F88300BF63
:1056A00028060020024B0146186805F0E4B900BF47
:1056B0002806002070B50C4D0646286802F0EAFB6B
:1056C000044666B9002070BD20463146102203F022
:1056D00025FC38B12146286805F09DF90446002CC8
:1056E000F2D1EFE7204670BD28060020024B0146AC
:1056F000186805F0A7B900BF2806002070B5054658
:1057000010200C4602F0ECFD0649064605F04EF965
:1057100030B9304629462246BDE8704001F046B90E
:1057200070BD00BF06B7200070B53F4D286802F07D
:10573000B1FB0446002876D094F82230042B6DD8B3
:10574000DFE803F01D036C33410004F1100630461E
:1057500002F0D0FF002861D0204600F0FDF950B1E2
:10576000032384F822303046052105F0F5F90023A3
:1057700084F8203052E0022384F822304EE094F87E
:105780002030022B2BD804F11806304602F0B2FF6D
:10579000002843D0254B188800283FD194F82030AA
:1057A0000146013384F820302CE004F1100002F0AF
:1057B000A1FF98B30423002184F8223084F820103C
:1057C00004F1180028E094F82030022B0BD9204671
:1057D00000F0C2F918B1037F0BB900F09BF9204625
:1057E000FFF716FF1AE004F11806304602F082FFB8
:1057F000A0B10E4B188888B9214694F820300133A7
:1058000084F82030224600F037FE094B30461969F3
:105810004FF47A73B1FBF3F105F09EF92868214645
:1058200005F0F9F885E770BD2806002070280020F3
:10583000FC2E00202DE9F04105460D480F4690460C
:1058400004F084FA044688B1012D04D8094804F014
:10585000B3FA034601E0084B1B68284666683946E0
:105860004246B047204604F0AEFAEBE7BDE8F081CF
:10587000C01C0020581800205418002008B50A4801
:1058800004F0A4FA094804F05EFA0949094802F054
:10589000EDFA094804F09AFA084804F054FABDE811
:1058A0000840074804F04FBA58060020FC180020B2
:1058B000E19F2000480600203C06002058180020E8
:1058C000C01C002008B5034638B15968034805F0EC
:1058D000D2F8BDE8084004F074BB08BD48060020BB
:1058E000014804F033BA00BFFC1800202DE9F04154
:1058F0008046FFF7F5FF0026044637469CB194F832
:105900002450B5420AD3404604F10801EA0803F0E6
:1059100005FB18B9802D08D02E462746204604F0F6
:105920005BFB0446EAE73C4667B1084804F00EFA20
:10593000844207D00548214604F012FA0348214664
:1059400004F031FA2046BDE8F08100BFFC180020C9
:1059500038B5044600283DD04368002B3AD01E4895
:10596000214604F0FDF96368586804F0EFF9054634
:1059700030B14368A34207D0284604F024FAF6E782
:1059800004F1080000F08CFF63682946586804F0B1
:10599000E7F96368586804F0D9F920B963680F48DB
:1059A000596802F01FFB21460D4804F033FA2946DE
:1059B0000C4804F02FFA0C4A20461368013B136090
:1059C000FFF780FF04F108010246BDE838400320DC
:1059D000FFF730BF38BD00BFFC180020480600208C
:1059E00058060020640600205418002010B5044614
:1059F00078B1406868B104F0A9F920B14068FFF7B8
:105A0000A7FF6068F7E72146BDE81040014802F0B3
:105A1000E9BA10BD480600202DE9F04707461046B8
:105A20008946904604F0CFFA824610B90020BDE8BE
:105A3000F0873846FFF75AFF044660B1FFF742FF90
:105A4000014628B14046102203F068FA002854D0DD
:105A50002046FFF77DFF2A4E3368142B04D12948D6
:105A600004F076F9FFF774FF2748514604F0EAFF87
:105A7000054658B92448514602F026FA0546002842
:105A8000D4D000236860036004F05DF91F4804F07F
:105A9000ADF904460028C9D01A48214604F083F91C
:105AA0001B4804F0A3F9824620B92146174804F0A8
:105AB000B1F9BBE744606868514604F065F93368A2
:105AC0006560013333603B4604F1080507F11006B9
:105AD0002A4618685968083303C2B3421546F7D1FD
